:100000000C942A000C943C000C943C000C943C0092
:100010000C943C000C943C000C943C000C943C0070
:100020000C943C000C943C000C943C000C943C0060
:100030000C943C000C943C000C943C000C943C0050
:100040000C943C000C943C000C943C000C943C0040
:100050000C943C0011241FBECFE5D8E0DEBFCDBF1D
:1000600017E0A0E6B0E001C01D92AC3CB107E1F79B
:100070000E943E000C94DB000C9400001F93CF9371
:10008000DF9380EC87B982E886B983B7896683BF3E
:10009000BB9A87B3897F87BB86E088BB14E041E0C9
:1000A00050E020E030E0A4E0B0E0369A349A64B149
:1000B00085B1F82FE0E0EA01C05ADF4FC881D0E0F7
:1000C000CA9FC001CB9F900DDA9F900D112470E064
:1000D0006E2B7F2B860F971F969587959695879504
:1000E00096958795CFE8D1E02197F1F700C0000001
:1000F0008F3F910519F010F08FEF90E0E901C05AA1
:10010000DF4F88838CBFB19911C0143051F52F5F38
:100110003F4F97E02B36390709F14F5F5F4FC7E03C
:100120004B365C0711F640E050E0BFCFB299EFCFFD
:1001300011166CF711508FEF95EAAEE081509040A8
:10014000A040E1F700C00000A12FBB27A7FDB0959C
:100150002F5F3F4F97E02B363907F9F620E030E06C
:10016000DCCF1F5F8FEF95EAAEE081509040A0405A
:10017000E1F700C00000A12FBB27A7FDB095C7CFB6
:1001800080EC87B982E886B9089587B3897F87BBF9
:1001900086E088BB0895369A349A24B135B1932FFE
:1001A00080E030E0282B392BC901089583B7896698
:0A01B00083BFBB9A0895F894FFCFB7
:00000001FF
